:1000000044C1000067C1000065C1000063C1000079
:1000100061C100005FC100005DC1000052C300006B
:1000200031C3000057C1000055C1000053C100009A
:1000300051C100004FC100004DC100004BC1000084
:1000400049C1000047C1000045C1000043C1000094
:1000500041C100003FC100003DC100003BC10000A4
:1000600039C1000037C1000035C1000033C10000B4
:1000700031C100002FC100002DC100002BC10000C4
:1000800029C1000027C1000025C1000023C10000D4
:1000900021C100001FC100001DC100001BC10000E4
:1000A00019C1000017C1000015C1000013C10000F4
:1000B00011C100000FC100000DC100000BC1000004
:1000C00009C1000007C1000005C1000003C1000014
:1000D00001C10000FFC00000FDC00000FBC0000027
:1000E000F9C00000F7C00000F5C00000F3C0000038
:1000F000F1C00000EFC00000EDC00000EBC0000048
:10010000E9C00000E7C00000E5C00000E3C0000057
:10011000E1C00000DFC00000DDC00000DBC0000067
:10012000D9C00000D7C00000D5C00000D3C0000077
:10013000D1C00000CFC00000CDC00000CBC0000087
:10014000C9C00000C7C00000C5C00000C3C0000097
:10015000C1C00000BFC00000BDC00000BBC00000A7
:10016000B9C00000B7C00000B5C00000B3C00000B7
:10017000B1C00000AFC00000ADC00000ABC00000C7
:10018000A9C00000A7C00000A5C00000A3C00000D7
:10019000A1C000009FC000009DC000009BC00000E7
:1001A00099C0000097C0000095C0000093C00000F7
:1001B00091C000008FC000008DC000008BC0000007
:1001C00089C0000087C0000085C0000083C0000017
:1001D00081C000007FC000007DC000007BC0000027
:1001E00079C0000077C0000075C0000073C0000037
:1001F00071C000000C940D096DC000001C034C0080
:100200005500460041002000430044004300200008
:10021000440065006D006F0000001A034C0055009B
:100220004600410020004C0069006200720061003D
:100230007200790000000403090409023E00020173
:1002400000C0320904000001020201000524001070
:1002500001042402060524060001070582030800A4
:10026000FF09040100020A00000007050402100053
:1002700005070583021000051201100102000008A5
:10028000EB03442001000102DC0111241FBECFEF6B
:10029000CDBFDFE3DEBF00E00CBF18BE19BE1ABE43
:1002A0001BBE10E2A0E0B0E2EEE4F3E100E00BBF21
:1002B00002C007900D92A830B107D9F71BBE25E206
:1002C000A8E0B0E201C01D92A838B207E1F7D1D191
:1002D0000C94A50995CE88E180935500809150003B
:1002E0008061809350008091510084FFFCCF8FB7D4
:1002F000F89494E028ED30E0A0E4B0E01BBEFD01EE
:1003000024BF90838FBF8FED9EE20197F1F700C06D
:1003100000008091400080915000826080935000E6
:100320008091510081FFFCCF8091560084608093C2
:1003300056008BE18093650087EB8093660082E036
:100340008093CA01EDE1F0E0E491E0936200ECE11A
:10035000F0E0E491E09363001092CA0181E08093A1
:10036000600087E08093A20021C7CF93DF9300D085
:10037000CDB7DEB7E0E0F1E084E280AB80E181ABB5
:100380008FE092E29C01990F440B29833A834B83BF
:1003900016AA20E830E024AB35AB9DEC92AB9EE48E
:1003A00093AB84AF8A8185AF8B8186AF80EB80AFC2
:1003B00088E081AF12AE80A9806880AB2396CDBF64
:1003C000DEBFDF91CF910895E0E0F1E083E8808324
:1003D00084E080A382E181A381E086A380E182A3FF
:1003E0008FE483A380EB84A788E085A716A60895F1
:1003F000CF93DF9300D0CDB7DEB78091092020E8FE
:10040000829FC0011124855F9F4D9C0140E029839C
:100410003A834B8310920020E0910920F0E0E55FE1
:10042000FD4D208130E0E0E0F1E024A335A380A77A
:100430008A8181A78B8182A780A1806880A323966F
:10044000CDBFDEBFDF91CF910895E0E4F6E080E418
:10045000828380E88183E0EBF8E083E0858383E3B7
:1004600086831782138284818C6184830895E0E4FB
:10047000F6E088E1808B818B81E0868382E0868351
:1004800008950895089540E169E883E8B7D540E10B
:1004900069E884E0B3D548E068E882E8AFD5109217
:1004A000012010920220109203201092042008953F
:1004B0000F931F9380919522813239F0823209F493
:1004C00045C0803209F060C00EC080919422813A0C
:1004D00009F05AC04CD567E070E081E090E23BD370
:1004E0001F910F91A0C480919422813209F04CC0D9
:1004F0003ED567E070E081E090E2A9D37BD4009123
:100500000120109102202091032030910420D90174
:10051000C801955EA844BF4FBC01CD0143E0660F02
:10052000771F881F991F4A95D1F7A9019801E4E028
:10053000220F331F441F551FEA95D1F7E4D62150EF
:1005400031092093B6083093B7081EC080919422D9
:100550008132D1F40CD5A3D5809196229091972227
:100560009C012170332781FF04C082E08093410603
:1005700003C082E08093420681E0232B19F0809330
:10058000410602C0809342061F910F910895CF93B8
:10059000DF9380919322843009F068C0C0910820D5
:1005A000CF5FC37080910920C81791F184E06AD4AD
:1005B000AAD4882369F12091A02280919C22909155
:1005C0009D22FC0127FF04C0EF5BFF4F608108C044
:1005D000E05CFF4F60813196808170E0681B71099B
:1005E000613808F060E8E0910820F0E0E55FFD4D3B
:1005F00060838091082070E020E8829FC001112470
:1006000040E050E0855F9F4D59D2C09308200BD445
:1006100080910020882331F090910920809108205A
:100620009813E6DE80913401C0E8DC2FD81B80915E
:100630000A20D817D9F083E825D480910A208D1795
:1006400008F4CD2FC81B6C2F70E090E040E050E024
:10065000815F9D4DE6D180910A20C80FCF77C0936E
:100660000A20C8D332D5DF91CF91C4C3DF91CF9197
:10067000089531DEEADEFBDE789477DEA5DE87DFE3
:10068000BFD1FDCF1F920F920FB60F92112408B663
:100690000F9218BE0BB60F921BBE8F93EF93FF9372
:1006A000E0E0F1E081A9806181ABFF91EF918F9152
:1006B0000F900BBE0F9008BE0F900FBE0F901F90B3
:1006C00018951F920F920FB60F92112408B60F9231
:1006D00018BE09B60F9219BE0BB60F921BBE2F9310
:1006E0003F934F935F936F937F938F939F93AF93BA
:1006F000BF93EF93FF93809121018061809321014B
:10070000809109208F5F8370809309209091092048
:1007100080910820981711F06BDE03C081E0809370
:100720000020FF91EF91BF91AF919F918F917F91A9
:100730006F915F914F913F912F910F900BBE0F9052
:1007400009BE0F9008BE0F900FBE0F901F90189516
:10075000292F33272230310559F02330310569F034
:1007600021303105E9F482E190E028E732E01CC055
:100770008EE390E02AE332E017C09927813091059B
:1007800049F028F0029761F4ECEFF1E005C0E6E3F0
:10079000F2E002C0EAE1F2E0849190E09F0104C03F
:1007A00080E090E020E030E0FA012083318308957A
:1007B0000F931F93CF93DF93CDB7DEB7EA97CDBFEB
:1007C000DEBF04E912E23ED3F80181938F01F2E229
:1007D0000C391F07C1F76CDEB0D3882309F402C1BE
:1007E0008091942290919522953009F478C030F44C
:1007F000913091F168F0933079F1F4C0983009F4B8
:10080000CCC0993009F4D1C0963009F0EBC07BC060
:10081000803821F0823809F0E5C008C0109190229C
:1008200080919122882399F0126011C080919822C2
:100830008F70853008F0D6C025D3E0919E22F091CC
:100840009F22118112FB112710F980E01BD38FD357
:10085000812F08D380E0A6C0282F2D7F09F0C2C0C9
:10086000882319F0823061F0BDC0809196228130DA
:1008700009F0B8C0933009F080E0809391222AC03B
:1008800080919622811126C0E09198221E2F1F7020
:100890008FEF810F843008F0A5C0812FF3D28091B3
:1008A0009522833011F48FD315C0E0919E22F091F0
:1008B0009F2281818B7F818324E8129FF001112484
:1008C000EE51FD4D1082E0919E22F0919F22808199
:1008D0008E7F808380E0D6D24AD3E1D383C081115A
:1008E00081C0109196221F7742D3D9D300D3882399
:1008F000E9F31093C304111102C082E001C083E048
:10090000809393226FC08058823008F06BC0809132
:100910009622909197228C3DE3E09E0761F583E05B
:100920008A838AE389834FB7F894DE01139620E027
:1009300038E052E05093CA01E32FF0E0E4911092C6
:10094000CA0120FF03C0E295EF703F5FEF708E2F6A
:1009500090E0EA3010F0C79601C0C0968D939D9349
:100960002F5F2C3139F74FBF02D36AE370E0CE011D
:100970000196F1D010C06091982270919922AE0139
:100980004F5F5F4FE5DE8C01892B61F1F0D2B8013A
:1009900089819A81B1D147D225C0803819F5E7D233
:1009A00080918F225FD226D298CF81111BC0809177
:1009B00096229091972299270297A4F4D8D28091F9
:1009C000962280938F226BD380918F22811106C053
:1009D0008091C304811102C081E001C084E0809352
:1009E000932251DDAAD2882311F0C1D2ECD2EA962B
:1009F000CDBFDEBFDF91CF911F910F910895089574
:100A0000CF9380919322882351F0C091A02280E05F
:100A100039D293D28111CCDE8C2FCF9133C2CF91BA
:100A20000895CF92DF92EF92FF920F931F93CF938F
:100A3000DF93EC018B017A0148D3811136C0E114B8
:100A4000F10439F0F70180819181081B190BC80F5F
:100A5000D91FC12CD12C0115110531F180919C2297
:100A600090919D22FC01EF5BFF4F208131978081A7
:100A7000281790F0BFD1C4DFE114F10449F0F70169
:100A800080819181C80ED91EC082D18285E00DC0BF
:100A90001CD3882301F309C08991E4D101501109C5
:100AA000FFEFCF1ADF0AD7CF80E0DF91CF911F9100
:100AB0000F91FF90EF90DF90CF900895CF92DF924B
:100AC000EF92FF920F931F93CF93DF93EC018B0173
:100AD0007A01FBD2811136C0E114F10439F0F7013B
:100AE00080819181081B190BC80FD91FC12CD12CF3
:100AF0000115110531F180919C2290919D22FC01FC
:100B0000EF5BFF4F208131978081281790F08BD1C8
:100B100077DFE114F10449F0F70180819181C80E7B
:100B2000D91EC082D18285E00DC0CFD2882301F3C7
:100B300009C088D1899301501109FFEFCF1ADF0A4C
:100B4000D7CF80E0DF91CF911F910F91FF90EF9071
:100B5000DF90CF900895DF92EF92FF920F931F9353
:100B6000CF93DF93D82FC92F8B018091A02280686B
:100B700089D180919A2290919B228017910728F029
:100B80000115110519F436D101C08C01ED2EFC2E92
:100B9000D12C0115110509F440C0809193228111D7
:100BA00002C082E04CC0853011F483E048C0C5D15A
:100BB000882311F081E043C0A6D181113CC097D1B8
:100BC000882339F32091A02280919C2290919D222C
:100BD000FC0127FF05C0EF5BFF4FC081D0E013C0D1
:100BE000E05CFF4FC08131968081D0E0C81BD10905
:100BF0000AC0C830D10550F4F70181917F0132D18C
:100C00000150110921960115110599F7DD24D3949E
:100C1000289709F0D12CEED0BCCFD110BECF0BC09D
:100C200080919322882309F4BCCF853009F4BDCF8D
:100C300084D18111BFCF67D1882391F380E0DF9108
:100C4000CF911F910F91FF90EF90DF900895EF9259
:100C5000FF920F931F93CF93DF937C01EB01809161
:100C6000A0228F770FD1209709F4DDD0870120973C
:100C7000B1F180919322811102C082E036C08530AB
:100C800011F483E032C059D181112EC03CD18823A8
:100C900071F38091A02220919C2230919D22F90134
:100CA00087FF05C0EF5BFF4F808190E008C0E05CEC
:100CB000FF4F80813196208190E0821B9109892B22
:100CC00031F0C0D0F80181938F01219711F7ABD09B
:100CD000CECF80919322882381F2853091F207D183
:100CE0008823B9F380E001C081E0DF91CF911F91AB
:100CF0000F91FF90EF900895DF92EF92FF920F9384
:100D00001F93CF93DF93D82FC92F8B018091A022FF
:100D10008068B8D080919A2290919B228017910789
:100D200028F00115110519F465D001C08C01ED2ED4
:100D3000FC2ED12C0115110509F442C0809193229B
:100D4000811102C082E04EC0853011F483E04AC0B8
:100D5000F4D0882311F081E045C0D5D081113EC088
:100D6000C6D0882339F32091A02280919C229091B3
:100D70009D22FC0127FF05C0EF5BFF4FC081D0E043
:100D800015C0E05CFF4FC08131968081D0E0C81B68
:100D9000D1090CC0C830D10560F4F701849162D04C
:100DA000FFEFEF1AFF0A01501109219601151105F5
:100DB00089F7DD24D394289709F0D12C1BD0BACF22
:100DC000D110BCCF0BC080919322882309F4BACFF5
:100DD000853009F4BBCFB1D08111BDCF94D0882329
:100DE00091F380E0DF91CF911F910F91FF90EF90F1
:100DF000DF900895E0919E22F0919F22A0919C2285
:100E0000B0919D22AF5BBF4F8C9190E08283938322
:100E100080818D798083E0919C22F0919D22EF5B0F
:100E2000FF4F10820895E0919E22F0919F228081D1
:100E30008D798083E0919C22F0919D22EF5BFF4FA2
:100E40001082089580919C2290919D22FC01EF5B7D
:100E5000FF4F208131E0320F3083FC01E20FF11DA2
:100E60008081089520919C2230919D22F901EF5BB1
:100E7000FF4F908141E0490F4083F901E90FF11DD7
:100E8000808308958093A022482F4F7050E0609196
:100E9000C6047091C7049A0194E0220F331F9A95FB
:100EA000E1F7E4E887FF11C0E49FC001E59F900DE2
:100EB00011248D519D4D80939C2290939D22C901B8
:100EC00008969B01280F391F0DC0E49FC001E59FC4
:100ED000900D11248F559D4D80939C2290939D22BF
:100EE000260F371F20939E2230939F2208958091D2
:100EF000A0228068C7DFE0919E22F0919F2280812E
:100F00008695817008958091A0228F77BBDFA09194
:100F10009E22B0919F228C9185FF0DC0E0919C2272
:100F2000F0919D2212968D919C911397E05CFF4F5A
:100F3000808381E0089580E008958091A0228F77DA
:100F4000A1DFA0919E22B0919F228C9184FF0DC0C1
:100F5000E0919C22F0919D2212968D919C91139785
:100F6000E05CFF4F808381E0089580E008958091E8
:100F7000A0228F7787DFE0919E22F0919F228081CF
:100F80008D788083E0919E22F0919F228081816004
:100F90008083E0919C22F0919D22EF5BFF4F1082B5
:100FA0008091A02280686EDFE0919E22F0919F22C6
:100FB000808181608083E0919C22F0919D22EF5B93
:100FC000FF4F10820895E0919E22F0919F2281812F
:100FD00084608183E0919E22F0919F228181807CB8
:100FE000803459F48091A02280584CDFE0919E22F9
:100FF000F0919F2281818460818308951F93CF9314
:10100000DF93C82F162FD42F3DDFE0919E22F09161
:101010009F221182E0919E22F0919F228C2F881FA7
:101020008827881F880F8083E0919E22F0919F225D
:101030001183E0919E22F0919F22128213822091CF
:101040009C2230919D2224833583CC0FCC0BCD2361
:10105000F901E05CFF4FC0833196108281E0DF919F
:10106000CF911F91089580E090E0E091C604F09147
:10107000C7049C0144E0220F331F4A95E1F7E20FB9
:10108000F31F11864091C6045091C704FA01E20F84
:10109000F31F118201968530910539F708958091EB
:1010A000942287FF0DC02FDF811105C0809193220C
:1010B0008111F9CF09C0B7CE80919322882321F006
:1010C00016DF8823C9F396CE08950F931F93CF930D
:1010D000E091C604F091C704E05BFF4F00811181ED
:1010E000C4E68091A02287FF0AC001DF811105C0FC
:1010F00080919322811105C022C080E025C003DFCA
:10110000F5CF8530F1F0E0919E22F0919F22818110
:1011100082FD19C0E091C604F091C704E05BFF4F67
:10112000808191810817190711F48C01DACF2FEF14
:101130002C0FCC2311F0C22FF8CF84E005C082E041
:1011400003C083E001C081E0CF911F910F9108950A
:10115000CF93DF93E0E4F0E01482848183608483A2
:101160004FD055D0C0ECD4E088818F7788838881B8
:10117000806888831092932210928F22109291227D
:101180001092902288818064888348E068E480E837
:1011900035DF48E068E480E031DF88858064888757
:1011A000898181608983DF91CF910895CF93DF9307
:1011B0002FB7F894C0ECD1E082E08A87EAE1F0E052
:1011C000E491A0ECB4E0DA96EC93DA97EBE1F0E08E
:1011D000E491DB96EC93DB971A8686E395E28E7FAB
:1011E00016968D939C93179784E18C9383E01896C1
:1011F0008C932FBF81E080939222DF91CF91A8CF73
:10120000E0ECF4E080858370808711860895E0EC3F
:10121000F4E08FEF8287848708951F920F920FB6B4
:101220000F92112408B60F9218BE09B60F9219BE7C
:101230000BB60F921BBE2F933F934F935F936F9309
:101240007F938F939F93AF93BF93EF93FF9380917F
:10125000CA0487FF08C08091C80487FF04C080E8E3
:101260008093CA04CCDB8091CA0486FF06C080E468
:101270008093CA041092932205D98091CA0485FFF5
:1012800013C080E28093CA0480918F22882311F0DA
:1012900084E007C08091C304811102C081E001C0D5
:1012A00083E080939322EDD88091CA0484FF14C018
:1012B00080E18093CA0482E08093932210928F226F
:1012C0001092C304D0DE48E068E480E897DE48E08E
:1012D00068E480E093DE93DBFF91EF91BF91AF91E3
:1012E0009F918F917F916F915F914F913F912F913E
:1012F0000F900BBE0F9009BE0F9008BE0F900FBE4F
:101300000F901F901895A1E21A2EAA1BBB1BFD017E
:101310000DC0AA1FBB1FEE1FFF1FA217B307E407D4
:10132000F50720F0A21BB30BE40BF50B661F771F2C
:10133000881F991F1A9469F760957095809590950C
:0E1340009B01AC01BD01CF010895F894FFCFD1
:08134E0001000000000000088E
:00000001FF
